{
	"abi": [
		{
			"type": "constructor",
			"inputs": [],
			"stateMutability": "nonpayable"
		},
		{
			"type": "fallback",
			"stateMutability": "payable"
		},
		{
			"type": "receive",
			"stateMutability": "payable"
		},
		{
			"type": "function",
			"name": "MIN_CONTRIBUTION",
			"inputs": [],
			"outputs": [
				{
					"name": "",
					"type": "uint256",
					"internalType": "uint256"
				}
			],
			"stateMutability": "view"
		},
		{
			"type": "function",
			"name": "approvalTokenCounter",
			"inputs": [],
			"outputs": [
				{
					"name": "",
					"type": "uint256",
					"internalType": "uint256"
				}
			],
			"stateMutability": "view"
		},
		{
			"type": "function",
			"name": "approvalTokenOwners",
			"inputs": [
				{
					"name": "",
					"type": "uint256",
					"internalType": "uint256"
				}
			],
			"outputs": [
				{
					"name": "",
					"type": "address",
					"internalType": "address"
				}
			],
			"stateMutability": "view"
		},
		{
			"type": "function",
			"name": "approvalTokenOwnership",
			"inputs": [
				{
					"name": "",
					"type": "address",
					"internalType": "address"
				},
				{
					"name": "",
					"type": "uint256",
					"internalType": "uint256"
				}
			],
			"outputs": [
				{
					"name": "",
					"type": "bool",
					"internalType": "bool"
				}
			],
			"stateMutability": "view"
		},
		{
			"type": "function",
			"name": "authority",
			"inputs": [],
			"outputs": [
				{
					"name": "",
					"type": "address",
					"internalType": "address"
				}
			],
			"stateMutability": "view"
		},
		{
			"type": "function",
			"name": "contributeToPatient",
			"inputs": [
				{
					"name": "_patientId",
					"type": "uint256",
					"internalType": "uint256"
				}
			],
			"outputs": [],
			"stateMutability": "payable"
		},
		{
			"type": "function",
			"name": "endorseHealthAppeal",
			"inputs": [
				{
					"name": "_patientId",
					"type": "uint256",
					"internalType": "uint256"
				}
			],
			"outputs": [],
			"stateMutability": "nonpayable"
		},
		{
			"type": "function",
			"name": "getContributorAmount",
			"inputs": [
				{
					"name": "_patientId",
					"type": "uint256",
					"internalType": "uint256"
				},
				{
					"name": "_contributor",
					"type": "address",
					"internalType": "address"
				}
			],
			"outputs": [
				{
					"name": "",
					"type": "uint256",
					"internalType": "uint256"
				}
			],
			"stateMutability": "view"
		},
		{
			"type": "function",
			"name": "getContributors",
			"inputs": [
				{
					"name": "_patientId",
					"type": "uint256",
					"internalType": "uint256"
				}
			],
			"outputs": [
				{
					"name": "",
					"type": "address[]",
					"internalType": "address[]"
				}
			],
			"stateMutability": "view"
		},
		{
			"type": "function",
			"name": "getPatientAppealDetails",
			"inputs": [
				{
					"name": "_patientId",
					"type": "uint256",
					"internalType": "uint256"
				}
			],
			"outputs": [
				{
					"name": "patient",
					"type": "address",
					"internalType": "address"
				},
				{
					"name": "purpose",
					"type": "string",
					"internalType": "string"
				},
				{
					"name": "description",
					"type": "string",
					"internalType": "string"
				},
				{
					"name": "ipfsHash",
					"type": "string",
					"internalType": "string"
				},
				{
					"name": "targetFigure",
					"type": "uint256",
					"internalType": "uint256"
				},
				{
					"name": "targetDeadline",
					"type": "uint256",
					"internalType": "uint256"
				},
				{
					"name": "amountRaised",
					"type": "uint256",
					"internalType": "uint256"
				},
				{
					"name": "endorsed",
					"type": "bool",
					"internalType": "bool"
				},
				{
					"name": "rejected",
					"type": "bool",
					"internalType": "bool"
				},
				{
					"name": "completed",
					"type": "bool",
					"internalType": "bool"
				},
				{
					"name": "approvalTokenId",
					"type": "uint256",
					"internalType": "uint256"
				},
				{
					"name": "amountPaidOut",
					"type": "uint256",
					"internalType": "uint256"
				},
				{
					"name": "contributorCount",
					"type": "uint256",
					"internalType": "uint256"
				},
				{
					"name": "targetAchieved_",
					"type": "bool",
					"internalType": "bool"
				},
				{
					"name": "contributionsBlocked",
					"type": "bool",
					"internalType": "bool"
				}
			],
			"stateMutability": "view"
		},
		{
			"type": "function",
			"name": "isTargetAchieved",
			"inputs": [
				{
					"name": "_patientId",
					"type": "uint256",
					"internalType": "uint256"
				}
			],
			"outputs": [
				{
					"name": "",
					"type": "bool",
					"internalType": "bool"
				}
			],
			"stateMutability": "view"
		},
		{
			"type": "function",
			"name": "patientAppealCount",
			"inputs": [],
			"outputs": [
				{
					"name": "",
					"type": "uint256",
					"internalType": "uint256"
				}
			],
			"stateMutability": "view"
		},
		{
			"type": "function",
			"name": "payContributionsToPatient",
			"inputs": [
				{
					"name": "_patientId",
					"type": "uint256",
					"internalType": "uint256"
				}
			],
			"outputs": [],
			"stateMutability": "nonpayable"
		},
		{
			"type": "function",
			"name": "proposeHealthAppeal",
			"inputs": [
				{
					"name": "_purpose",
					"type": "string",
					"internalType": "string"
				},
				{
					"name": "_description",
					"type": "string",
					"internalType": "string"
				},
				{
					"name": "_ipfsHash",
					"type": "string",
					"internalType": "string"
				},
				{
					"name": "_targetFigure",
					"type": "uint256",
					"internalType": "uint256"
				},
				{
					"name": "_targetDeadline",
					"type": "uint256",
					"internalType": "uint256"
				}
			],
			"outputs": [
				{
					"name": "",
					"type": "uint256",
					"internalType": "uint256"
				}
			],
			"stateMutability": "nonpayable"
		},
		{
			"type": "function",
			"name": "rejectHealthAppeal",
			"inputs": [
				{
					"name": "_patientId",
					"type": "uint256",
					"internalType": "uint256"
				}
			],
			"outputs": [],
			"stateMutability": "nonpayable"
		},
		{
			"type": "function",
			"name": "stopContract",
			"inputs": [],
			"outputs": [],
			"stateMutability": "nonpayable"
		},
		{
			"type": "function",
			"name": "stopped",
			"inputs": [],
			"outputs": [
				{
					"name": "",
					"type": "bool",
					"internalType": "bool"
				}
			],
			"stateMutability": "view"
		},
		{
			"type": "event",
			"name": "ContractStopped",
			"inputs": [
				{
					"name": "stopped",
					"type": "bool",
					"indexed": false,
					"internalType": "bool"
				}
			],
			"anonymous": false
		},
		{
			"type": "event",
			"name": "ContributionReceived",
			"inputs": [
				{
					"name": "patientId",
					"type": "uint256",
					"indexed": true,
					"internalType": "uint256"
				},
				{
					"name": "contributor",
					"type": "address",
					"indexed": true,
					"internalType": "address"
				},
				{
					"name": "amount",
					"type": "uint256",
					"indexed": false,
					"internalType": "uint256"
				}
			],
			"anonymous": false
		},
		{
			"type": "event",
			"name": "ContributionRejected",
			"inputs": [
				{
					"name": "patientId",
					"type": "uint256",
					"indexed": true,
					"internalType": "uint256"
				},
				{
					"name": "contributor",
					"type": "address",
					"indexed": true,
					"internalType": "address"
				},
				{
					"name": "amount",
					"type": "uint256",
					"indexed": false,
					"internalType": "uint256"
				},
				{
					"name": "reason",
					"type": "string",
					"indexed": false,
					"internalType": "string"
				}
			],
			"anonymous": false
		},
		{
			"type": "event",
			"name": "ContributionsBlocked",
			"inputs": [
				{
					"name": "patientId",
					"type": "uint256",
					"indexed": true,
					"internalType": "uint256"
				},
				{
					"name": "authority",
					"type": "address",
					"indexed": true,
					"internalType": "address"
				}
			],
			"anonymous": false
		},
		{
			"type": "event",
			"name": "ContributionsPaidOut",
			"inputs": [
				{
					"name": "patientId",
					"type": "uint256",
					"indexed": true,
					"internalType": "uint256"
				},
				{
					"name": "patient",
					"type": "address",
					"indexed": true,
					"internalType": "address"
				},
				{
					"name": "amount",
					"type": "uint256",
					"indexed": false,
					"internalType": "uint256"
				}
			],
			"anonymous": false
		},
		{
			"type": "event",
			"name": "EndorsementTokenIssued",
			"inputs": [
				{
					"name": "tokenId",
					"type": "uint256",
					"indexed": true,
					"internalType": "uint256"
				},
				{
					"name": "patient",
					"type": "address",
					"indexed": true,
					"internalType": "address"
				}
			],
			"anonymous": false
		},
		{
			"type": "event",
			"name": "HealFundProjectCompleted",
			"inputs": [
				{
					"name": "patientId",
					"type": "uint256",
					"indexed": true,
					"internalType": "uint256"
				},
				{
					"name": "patient",
					"type": "address",
					"indexed": true,
					"internalType": "address"
				}
			],
			"anonymous": false
		},
		{
			"type": "event",
			"name": "HealFundProjectRejected",
			"inputs": [
				{
					"name": "patientId",
					"type": "uint256",
					"indexed": true,
					"internalType": "uint256"
				},
				{
					"name": "authority",
					"type": "address",
					"indexed": true,
					"internalType": "address"
				}
			],
			"anonymous": false
		},
		{
			"type": "event",
			"name": "PatientAppealCreated",
			"inputs": [
				{
					"name": "patientId",
					"type": "uint256",
					"indexed": true,
					"internalType": "uint256"
				},
				{
					"name": "purpose",
					"type": "string",
					"indexed": false,
					"internalType": "string"
				},
				{
					"name": "description",
					"type": "string",
					"indexed": false,
					"internalType": "string"
				},
				{
					"name": "ipfsHash",
					"type": "string",
					"indexed": false,
					"internalType": "string"
				},
				{
					"name": "targetFigure",
					"type": "uint256",
					"indexed": true,
					"internalType": "uint256"
				},
				{
					"name": "targetDeadline",
					"type": "uint256",
					"indexed": false,
					"internalType": "uint256"
				}
			],
			"anonymous": false
		},
		{
			"type": "event",
			"name": "PatientAppealEndorsed",
			"inputs": [
				{
					"name": "patientId",
					"type": "uint256",
					"indexed": true,
					"internalType": "uint256"
				},
				{
					"name": "authority",
					"type": "address",
					"indexed": true,
					"internalType": "address"
				}
			],
			"anonymous": false
		},
		{
			"type": "event",
			"name": "TargetAchieved",
			"inputs": [
				{
					"name": "patientId",
					"type": "uint256",
					"indexed": true,
					"internalType": "uint256"
				},
				{
					"name": "patient",
					"type": "address",
					"indexed": true,
					"internalType": "address"
				},
				{
					"name": "targetAmount",
					"type": "uint256",
					"indexed": false,
					"internalType": "uint256"
				}
			],
			"anonymous": false
		},
		{
			"type": "error",
			"name": "ReentrancyGuardReentrantCall",
			"inputs": []
		}
	],
	"bytecode": {
		"object": "0x60808060405234602b5760015f81905580546001600160a01b0319163317905561164890816100308239f35b5f80fdfe60806040526004361015610018575b366115af576115af565b5f3560e01c806302458ad114610de357806312253a6c14610d6857806317d5cb5014610d365780631d58c23f14610d195780633c1ab00f14610c615780633c42097314610c2f57806340650c9114610c0e57806361c47cc914610bbf57806373f7792d14610a3357806374b64ad91461094b57806375f12b2114610926578063b8e60f631461040c578063bf7e214f146103e4578063cb5fd4551461027a578063d032763c1461025d578063e279330f146101285763fd2cbd950361000e5734610124576040366003190112610124576004356001600160a01b03811690819003610124575f52600860205260405f206024355f52602052602060ff60405f2054166040519015158152f35b5f80fd5b3461012457602036600319011261012457600435805f52600360205260405f2090600160a01b600190038254169060048301549060058401549060068501549060078601546008870154906009880154925f52600560205260405f205493600a8901549560018a016101999061150f565b996101a66002820161150f565b906003016101b39061150f565b906040519b8c9b8c5260208c016101e090526101e08c016101d391610f40565b8b810360408d01526101e491610f40565b8a810360608c01526101f591610f40565b9760808a015260a089015260c088015260ff8116151560e08801528060081c60ff16151561010088015260101c60ff16151561012087015261014086015261016085015261018084015260ff811615156101a084015260081c60ff1615156101c08301520390f35b34610124575f366003190112610124576020600254604051908152f35b3461012457602036600319011261012457600154600435906102b79060ff906102ad336001600160a01b03831614610f64565b60a01c1615610fc3565b805f52600360205260405f209060078201805460ff81166103ac576001906102e460058601544210611074565b60ff19161790556102f6600254611501565b6002818155600884810183905584545f93845260076020908152604080862080546001600160a01b0319166001600160a01b0394851617905587549092168552918252808420925484529190528120805460ff191660011790553391907f861890618b69079556887b76ebbf877e06d589ebb890093ba3a56f2228f436cb9080a360025490546001600160a01b0316907f25333fa5ade17d5158337dbc736b55df8f78b664c51c7b30fa5b3a9e5d4e31b25f80a3005b60405162461bcd60e51b815260206004820152601060248201526f105b1c9958591e48195b991bdc9cd95960821b6044820152606490fd5b34610124575f366003190112610124576001546040516001600160a01b039091168152602090f35b346101245760a03660031901126101245760043567ffffffffffffffff81116101245761043d903690600401610efa565b60243567ffffffffffffffff81116101245761045d903690600401610efa565b9060443567ffffffffffffffff81116101245761047e903690600401610efa565b91606435906084359261049960ff60015460a01c1615610fc3565b82156108ec57428411156108a7576004545f90815260036020526040902080546001600160a01b031916331781558151909490600186019067ffffffffffffffff8111610731576104ea82546114c9565b601f8111610862575b50806020601f8211600114610801575f916107f6575b508160011b915f199060031b1c19161790555b60028501835167ffffffffffffffff81116107315761053b82546114c9565b601f81116107b1575b50806020601f8211600114610750575f91610745575b508160011b915f199060031b1c19161790555b8551956003860167ffffffffffffffff88116107315761058d81546114c9565b97601f89116106ec575b6020985088601f821160011461065b57928460056106259a610618979585610633967ff754ceca57c3ca254d87496d4f65de76c4b5aa5421a87051ce2f000fbd4349509b995f91610650575b508160011b915f199060031b1c19161790555b8a60048201550155600454988997604051968796608088526080880190610f40565b908682038d880152610f40565b908482036040860152610f40565b9060608301520390a361064581611501565b600455604051908152f35b90508601515f6105e3565b601f19821690835f52805f20915f5b8181106106d557506106259a87956001867ff754ceca57c3ca254d87496d4f65de76c4b5aa5421a87051ce2f000fbd4349509b99966106189b9661063399600597106106bd575b5050811b0190556105f6565b8801515f1960f88460031b161c191690555f806106b1565b91928c60018192868a01518155019401920161066a565b815f5260205f20601f820160051c81019960208310610727575b601f0160051c01985b89811061071c5750610597565b5f815560010161070f565b9099508990610706565b634e487b7160e01b5f52604160045260245ffd5b90508501518961055a565b5f8481528181209250601f198416905b81811061079957509083600194939210610781575b5050811b01905561056d565b8701515f1960f88460031b161c191690558980610775565b9192602060018192868c015181550194019201610760565b825f5260205f20601f830160051c810191602084106107ec575b601f0160051c01905b8181106107e15750610544565b5f81556001016107d4565b90915081906107cb565b905084015189610509565b5f8481528181209250601f198416905b81811061084a57509083600194939210610832575b5050811b01905561051c565b8601515f1960f88460031b161c191690558980610826565b9192602060018192868b015181550194019201610811565b825f5260205f20601f830160051c8101916020841061089d575b601f0160051c01905b81811061089257506104f3565b5f8155600101610885565b909150819061087c565b60405162461bcd60e51b815260206004820152601e60248201527f446561646c696e65206d75737420626520696e207468652066757475726500006044820152606490fd5b60405162461bcd60e51b81526020600482015260126024820152710546172676574206d757374206265203e20360741b6044820152606490fd5b34610124575f36600319011261012457602060ff60015460a01c166040519015158152f35b60203660031901126101245760043561096c60ff60015460a01c1615610fc3565b6109796004548210611005565b805f52600360205260405f2060ff600a820154166109ee576007015460081c60ff166109b6576109b0906109ab6115f4565b6110d3565b60015f55005b60405162461bcd60e51b815260206004820152601060248201526f141c9bda9958dd081c995a9958dd195960821b6044820152606490fd5b60405162461bcd60e51b815260206004820152601760248201527f54617267657420616c72656164792061636869657665640000000000000000006044820152606490fd5b346101245760203660031901126101245760015460043590610a669060ff906102ad336001600160a01b03831614610f64565b610a736004548210611005565b805f52600360205260ff600a60405f2001541615610b7a57610a936115f4565b805f52600360205260405f209060098201918254610b465760068101548093555f8080808660018060a01b038654165af1610acc611045565b5015610b0f57546040519283526001600160a01b0316917fbee2838b2293ce5d927916d8ded5b3404b5d284e004cc1a3703f485dcfd7428590602090a360015f55005b60405162461bcd60e51b815260206004820152600f60248201526e151c985b9cd9995c8819985a5b1959608a1b6044820152606490fd5b60405162461bcd60e51b815260206004820152600c60248201526b105b1c9958591e481c185a5960a21b6044820152606490fd5b60405162461bcd60e51b815260206004820152601760248201527f546172676574206e6f74207965742061636869657665640000000000000000006044820152606490fd5b34610124576040366003190112610124576024356001600160a01b0381168103610124576004355f52600660205260405f209060018060a01b03165f52602052602060405f2054604051908152f35b34610124575f36600319011261012457602060405166470de4df8200008152f35b34610124576020366003190112610124576004355f526003602052602060ff600a60405f200154166040519015158152f35b34610124576020366003190112610124576004355f52600560205260405f20604051806020835491828152019081935f5260205f20905f5b818110610cfa5750505081610caf910382610ebc565b604051918291602083019060208452518091526040830191905f5b818110610cd8575050500390f35b82516001600160a01b0316845285945060209384019390920191600101610cca565b82546001600160a01b0316845260209093019260019283019201610c99565b34610124575f366003190112610124576020600454604051908152f35b34610124576020366003190112610124576004355f526007602052602060018060a01b0360405f205416604051908152f35b34610124575f366003190112610124576001547f780f3b51ae8de8927dd89f091ddef0d3b179009aa1c0c3f2c30be3b398f62cc590602090610db4336001600160a01b03831614610f64565b60ff60a01b60ff8260a01c161560a01b169060ff60a01b1916178060015560ff6040519160a01c1615158152a1005b346101245760203660031901126101245760015460043590610e169060ff906102ad336001600160a01b03831614610f64565b805f52600360205260405f206007810190815460ff8116610e7757600a62010100920161010061ff001982541617905562ffff00191617905533907f2b6b18f764da72abc5701d06bb6227395fc938215672aa79ab20bb15bd130d445f80a3005b60405162461bcd60e51b815260206004820152601d60248201527f43616e6e6f742072656a65637420656e646f727365642061707065616c0000006044820152606490fd5b90601f8019910116810190811067ffffffffffffffff82111761073157604052565b67ffffffffffffffff811161073157601f01601f191660200190565b81601f8201121561012457803590610f1182610ede565b92610f1f6040519485610ebc565b8284526020838301011161012457815f926020809301838601378301015290565b805180835260209291819084018484015e5f828201840152601f01601f1916010190565b15610f6b57565b60405162461bcd60e51b815260206004820152602a60248201527f4f6e6c792074686520617574686f726974792063616e20706572666f726d20746044820152693434b99030b1ba34b7b760b11b6064820152608490fd5b15610fca57565b60405162461bcd60e51b815260206004820152601360248201527210dbdb9d1c9858dd081a5cc81cdd1bdc1c1959606a1b6044820152606490fd5b1561100c57565b60405162461bcd60e51b8152602060048201526011602482015270125b9d985b1a5908185c1c19585b081251607a1b6044820152606490fd5b3d1561106f573d9061105682610ede565b916110646040519384610ebc565b82523d5f602084013e565b606090565b1561107b57565b60405162461bcd60e51b815260206004820152600f60248201526e111958591b1a5b99481c185cdcd959608a1b6044820152606490fd5b919082018092116110bf57565b634e487b7160e01b5f52601160045260245ffd5b805f52600360205260405f2090600782019160ff8354161561149557600a81019060ff825460081c166114585766470de4df82000034106114235761111d60058201544210611074565b600681019361112d3486546110b2565b926004830193845410611379575f85815260066020908152604080832033845290915290205415611314575b845f52600660205260405f2060018060a01b0333165f5260205260405f206111823482546110b2565b905561118f3487546110b2565b809655604051348152857f865c884d49c8cecaef108efb20f7d282f26c0f9b0d24dd48e5592d4e02ec658d60203393a383548610156111d1575b505050505050565b61010161ffff198254161790556201000062ff0000198254161790558360098201555f8080808760018060a01b038654165af161120c611045565b50156112da576020937fbee2838b2293ce5d927916d8ded5b3404b5d284e004cc1a3703f485dcfd7428592847f4c57972c4507ad29419515938f6f8d2784db5d210a98bea7666500d7f099b4dc879460018060a01b0390541697889354604051908152a360015460405191906001600160a01b0316857f4a5cda6b8dba37d6d504d995d7f62f1532a1430f630ce1736ccc328d3dd590345f80a385857f86eacd6aedbe7ac6f8c583e762fc83330ad0f2356f2517a1767e3b539908add55f80a38152a35f80808080806111c9565b60405162461bcd60e51b8152602060048201526012602482015271105d5d1bcb5c185e5bdd5d0819985a5b195960721b6044820152606490fd5b845f52600560205260405f20805490680100000000000000008210156107315760018201808255821015611365575f5260205f2001336bffffffffffffffffffffffff60a01b825416179055611159565b634e487b7160e01b5f52603260045260245ffd5b5050505090506040519034825260406020830152601360408301527215dbdd5b1908195e18d95959081d185c99d95d606a1b60608301527f9efa76d722c20bb0abb5b674817eb5b3a7657f418c16098c8631dfb3fc8d45e160803393a35f80808034335af16113e6611045565b50156113ee57565b60405162461bcd60e51b815260206004820152600d60248201526c1499599d5b990819985a5b1959609a1b6044820152606490fd5b60405162461bcd60e51b815260206004820152600d60248201526c42656c6f77206d696e696d756d60981b6044820152606490fd5b60405162461bcd60e51b815260206004820152601560248201527410dbdb9d1c9a589d5d1a5bdb9cc8189b1bd8dad959605a1b6044820152606490fd5b60405162461bcd60e51b815260206004820152600c60248201526b139bdd08195b991bdc9cd95960a21b6044820152606490fd5b90600182811c921680156114f7575b60208310146114e357565b634e487b7160e01b5f52602260045260245ffd5b91607f16916114d8565b5f1981146110bf5760010190565b9060405191825f825492611522846114c9565b808452936001811690811561158d5750600114611549575b5061154792500383610ebc565b565b90505f9291925260205f20905f915b818310611571575050906020611547928201015f61153a565b6020919350806001915483858901015201910190918492611558565b90506020925061154794915060ff191682840152151560051b8201015f61153a565b60405162461bcd60e51b815260206004820152601760248201527f55736520636f6e74726962757465546f50617469656e740000000000000000006044820152606490fd5b60025f54146116035760025f55565b633ee5aeb560e01b5f5260045ffdfea2646970667358221220ce3f67cbd19e1ace1675a1599f1614f1d3548f41137d089d6936db3e018a494164736f6c634300081c0033",
		"linkReferences": {}
	},
	"methodIdentifiers": {
		"MIN_CONTRIBUTION()": "40650c91",
		"approvalTokenCounter()": "d032763c",
		"approvalTokenOwners(uint256)": "17d5cb50",
		"approvalTokenOwnership(address,uint256)": "fd2cbd95",
		"authority()": "bf7e214f",
		"contributeToPatient(uint256)": "74b64ad9",
		"endorseHealthAppeal(uint256)": "cb5fd455",
		"getContributorAmount(uint256,address)": "61c47cc9",
		"getContributors(uint256)": "3c1ab00f",
		"getPatientAppealDetails(uint256)": "e279330f",
		"isTargetAchieved(uint256)": "3c420973",
		"patientAppealCount()": "1d58c23f",
		"payContributionsToPatient(uint256)": "73f7792d",
		"proposeHealthAppeal(string,string,string,uint256,uint256)": "b8e60f63",
		"rejectHealthAppeal(uint256)": "02458ad1",
		"stopContract()": "12253a6c",
		"stopped()": "75f12b21"
	},
	"id": 17
}